:020000040800F2
:100000000000032095050008891F00088B1F0008C9
:100010008D1F00088F1F0008911F000800000000BE
:10002000000000000000000000000000F172000865
:10003000931F00080000000081730008176C00087F
:10004000E5050008E5050008E5050008E5050008E8
:10005000E5050008E5050008E5050008E5050008D8
:10006000E5050008E5050008E5050008E5050008C8
:10007000E5050008E5050008E5050008E5050008B8
:10008000E5050008E5050008951F0008E5050008DE
:10009000E5050008E5050008E5050008E505000898
:1000A000E5050008E5050008E5050008E505000888
:1000B000E5050008E5050008E5050008E505000878
:1000C000E5050008E5050008E5050008E505000868
:1000D000E5050008E5050008E5050008E505000858
:1000E000E5050008E5050008E5050008E505000848
:1000F000E5050008E5050008E5050008E505000838
:10010000E5050008E5050008E5050008E505000827
:10011000E5050008E5050008A11F0008E505000841
:10012000E5050008E5050008E5050008E505000807
:10013000E5050008E5050008E5050008E5050008F7
:10014000E5050008E5050008E5050008E5050008E7
:10015000E5050008E5050008E5050008E5050008D7
:10016000E5050008E5050008E5050008E5050008C7
:10017000E5050008E5050008E505000800000000A9
:10018000E5050008E5050008E5050008E5050008A7
:10019000E5050008E5050008E5050008E505000897
:0C01A000AD1F0008E5050008B91F0008AD
:1001B00010B5054C237833B9044B13B10448AFF3A1
:1001C00000800123237010BD6401002000000000A6
:1001D000B4EA010808B5034B1BB103490348AFF368
:1001E000008008BD0000000068010020B4EA01089A
:1001F00001F0FF01102A2BDB10F0070F08D010F8D8
:10020000013B013A8B422DD010F0070F42B3F6D1DB
:10021000F0B441EA012141EA014122F007047FF0F4
:1002200000070023F0E80256083C85EA010586EA4B
:10023000010685FA47F5A3FA87F586FA47F6A5FA87
:1002400087F68EB9EED1F0BC01F0FF0102F0070293
:1002500032B110F8013B013A83EA010313B1F8D13E
:100260000020704701387047002D06BF354603381F
:10027000073815F0010F07D1013015F4807F02BF58
:10028000013015F4C03F0130F0BC0138704700BFA9
:1002900053B94AB9002908BF00281CBF4FF0FF31ED
:1002A0004FF0FF3000F074B9ADF1080C6DE904CEE9
:1002B00000F006F8DDF804E0DDE9022304B0704741
:1002C0002DE9F047089D04468E46002B4DD18A4209
:1002D000944669D9B2FA82F252B101FA02F3C2F13C
:1002E000200120FA01F10CFA02FC41EA030E9440CD
:1002F0004FEA1C48210CBEFBF8F61FFA8CF708FBEE
:1003000016E341EA034306FB07F199420AD91CEBC5
:10031000030306F1FF3080F01F81994240F21C81F7
:10032000023E63445B1AA4B2B3FBF8F008FB10333F
:1003300044EA034400FB07F7A7420AD91CEB040474
:1003400000F1FF3380F00A81A74240F20781644444
:10035000023840EA0640E41B00261DB1D4400023C9
:10036000C5E900433146BDE8F0878B4209D9002D2D
:1003700000F0EF800026C5E9000130463146BDE8B7
:10038000F087B3FA83F6002E4AD18B4202D3824221
:1003900000F2F980841A61EB030301209E46002DD0
:1003A000E0D0C5E9004EDDE702B9FFDEB2FA82F225
:1003B000002A40F09280A1EB0C014FEA1C471FFA83
:1003C0008CFE0126200CB1FBF7F307FB131140EA6A
:1003D00001410EFB03F0884208D91CEB010103F137
:1003E000FF3802D2884200F2CB804346091AA4B2F9
:1003F000B1FBF7F007FB101144EA01440EFB00FECD
:10040000A64508D91CEB040400F1FF3102D2A64531
:1004100000F2BB800846A4EB0E0440EA03409CE7D0
:10042000C6F12007B34022FA07FC4CEA030C20FA7D
:1004300007F401FA06F31C43F9404FEA1C4900FA9D
:1004400006F3B1FBF9F8200C1FFA8CFE09FB18111A
:1004500040EA014108FB0EF0884202FA06F20BD98D
:100460001CEB010108F1FF3A80F08880884240F2DD
:100470008580A8F102086144091AA4B2B1FBF9F021
:1004800009FB101144EA014100FB0EFE8E4508D91C
:100490001CEB010100F1FF346CD28E456AD90238A1
:1004A000614440EA0840A0FB0294A1EB0E01A14286
:1004B000C846A64656D353D05DB1B3EB080261EBF4
:1004C0000E0101FA07F722FA06F3F1401F43C5E9CE
:1004D000007100263146BDE8F087C2F12003D84004
:1004E0000CFA02FC21FA03F3914001434FEA1C4746
:1004F0001FFA8CFEB3FBF7F007FB10360B0C43EA38
:10050000064300FB0EF69E4204FA02F408D91CEBE7
:10051000030300F1FF382FD29E422DD902386344E5
:100520009B1B89B2B3FBF7F607FB163341EA034185
:1005300006FB0EF38B4208D91CEB010106F1FF38D4
:1005400016D28B4214D9023E6144C91A46EA0046CB
:1005500038E72E46284605E70646E3E61846F8E65D
:100560004B45A9D2B9EB020864EB0C0E0138A3E7A6
:100570004646EAE7204694E74046D1E7D0467BE787
:10058000023B614432E7304609E76444023842E7FF
:10059000704700BFDFF834D0002103E00C4B5B58FC
:1005A000435004310B480C4B42189A42F6D30B4A85
:1005B00002E0002342F8043B094B9A42F9D303F0CE
:1005C0007FFC1DF09BFA00F0AFFE70470000032097
:1005D000640F020800000020640100206401002074
:1005E000A8370120FEE7704700F0AEBC00F01EBD4A
:1005F000704710B5042104461DF012F9204610BDC5
:1006000038B50C4B0C4C18800C4B82201980636859
:10061000984740F6110398420AD1094D23682C608F
:10062000822098472B688220DB689847002038BDDD
:100630000120FCE7800100204C0000208201002006
:10064000840100204FF4A071F020FFF7D9BF000013
:10065000F7B52D4D2B6804461B698220984780B260
:100660002080002843D02B680DF106025B6901A9A8
:1006700082209847BDF80620A2F5B47292B20A2AE9
:1006800037D90B23B2FBF3F2204B1B889A4201D9D6
:10069000013B9AB2BDF8043040F6B8318B422AD8FB
:1006A000C3F571630E339BB20F21B3FBF1F318490D
:1006B00009888B4201D94B1E9BB2164E164D3068ED
:1006C0002F68834281B28CBF591AC91AB8B2BA4294
:1006D0008CBF101A801A89B280B201440529C8BFA4
:1006E00033603368C8BF2A6063802B68A38003B07F
:1006F000F0BD0022CEE7C3F56D6308339BB20E2B2D
:10070000D2D80023D9E700BF840100208201002055
:1007100080010020880100208C01002037B5684648
:100720000D461446FFF794FFBDF8000030B1BDF848
:1007300002302B60BDF804302360012003B030BDCF
:10074000032821D8DFE800F0020B12190F4B1A68BA
:10075000B2FA82F2520904210D4804F0A5B80B4BFD
:100760005A68B2FA82F252090821F5E7074B9A68F3
:10077000B2FA82F252091021EEE7044BDA68B2FABB
:1007800082F252092021E7E7704700BF9001002064
:1007900000100240032821D8DFE800F0020B1219F4
:1007A0000F4B1A68003A18BF012204210D4804F0CB
:1007B0007BB80B4B5A68003A18BF01220821F5E7B5
:1007C000074B9A68003A18BF01221021EEE7044B4C
:1007D000DA68003A18BF01222021E7E7704700BF1E
:1007E000900100200010024003280DD8DFE800F03F
:1007F0000206080A0421054804F05BB80821FAE75C
:100800001021F8E72021F6E7704700BF00100240F2
:10081000012380F8741080F875307047002070470D
:10082000034B4164003918BF01211970704700BFA4
:10083000FB34012000207047836B0BB1084618473A
:1008400070474FF6FF707047406803689B69184710
:10085000704770477047000070B5044600F086FC92
:100860002368D3F88850044BD4E90F122046AC46D5
:10087000BDE87040604700BF000000D008B50368C5
:100880000446D3F880309847236820469B6F9847EA
:1008900000F0ECF8236820461B6F9847292001F0F0
:1008A0002DF800F0E3F8236820461B6F9847F8E71F
:1008B00010B5044609F040FB23682046D3F8AC305D
:1008C000BDE81040184700F043BC00F047BC00F002
:1008D00073BC00F019BC00F073BC00F07BBC00F0EE
:1008E0001DBC08F083BD10B57C2104461CF098FFA8
:1008F000204610BD90F877301BB1406803681B6834
:10090000184718467047000010B590F8341090F85A
:1009100074400C4B8C421A7809D03AB90A4A0B49F8
:100920001488088810800C8001221A7010BD002ADB
:10093000FCD0054A05491488088810800C800022E4
:10094000F3E700BFF4340120F0340120F234012039
:1009500070B50D46194635B9094B0A4A0A4840F2A6
:10096000D2211CF08BFFC0E90F52084B003A18BF90
:1009700001221A700368BDE87040D3F88C30184724
:1009800024EB01085CEB0108AAEB0108FA34012012
:1009900008B5094B1B888B4203D8084B1B88934230
:1009A00005D9074B074A08489E211CF067FF074BF3
:1009B0001980074B1A8008BDF0340120F234012061
:1009C000EFEB010852EC0108AAEB0108F634012014
:1009D000F8340120012108B50022084606F0A9F9E3
:1009E0000A4B186028B90A4B0A4A28210A481CF009
:1009F00045FF00220421012006F038FA074B186059
:100A000018B9074B034A2C21F0E708BDA4010020C8
:100A100070ED0108B9ED0108E8ED0108A001002022
:100A20002BEE0108024B4FF0FF31186806F0CBB9EE
:100A3000A4010020014B186806F0F0B9A4010020C1
:100A4000024B0021186806F0BEB900BFA4010020C7
:100A5000FFF7F0BF03480449006800231A4606F078
:100A600040BA00BFA00100200400002013B5084CCC
:100A700000231A4601A9206806F063FA20684FF0A7
:100A8000FF33002201A906F05CFA02B010BD00BFDE
:100A9000A001002003685B6C1847012070470368C1
:100AA0009B6A184782B0002301930D4B1A6B42F4E6
:100AB00000021A631A6B02F400020192019A1A6989
:100AC00042F400021A611A6922F400021A61054B0D
:100AD000054A1A61054B4FF080629A6002B0704778
:100AE00000380240CC230020310B000800E100E078
:100AF00040F2EF3070470000054B0360054B4FF0AC
:100B00008062C3F88820BFF34F8FBFF36F8F7047A9
:100B1000C0EF010800E100E010B504464FF45A614F
:100B2000FFF7EAFF20461CF07BFE204610BD0000C8
:100B3000024B1B68586803685B691847FC34012046
:100B400070B5044625460A4B0C30002660602672BC
:100B5000667245F8203B6022294609F043FB04F504
:100B60005A63EE602435AB42FBD1204670BD00BF16
:100B7000C0EF010808B50B290BD8DFE801F0120619
:100B8000100A0A0A0A0808080808012008BD0520FA
:100B9000FCE7054B054A064866211CF06FFE002065
:100BA000F4E70220F2E700BF6DEE010888EE0108CD
:100BB000D2EE010808B50A2909D8DFE801F01006CD
:100BC0000E080808080606060600012008BD054BA9
:100BD000054A064887211CF051FE0020F6E7022056
:100BE000F4E700BF6DEE010813EF0108D2EE010833
:100BF0002DE9F8434F7F0C4639468146FFF7BAFF8F
:100C000094F81E80054641464846FFF7B3FF41462B
:100C100006464846FFF7CEFFA18A628B424B521A26
:100C20001A649A61228B521A1A61E28A586342EA64
:100C300001425A6420696268D863DA60216894F8D6
:100C40001CC080294FEA0C6226D010D8202945EA22
:100C5000020461D040295FD004295DD0324B2A4381
:100C600042F400324745DA615AD0304A40E0B1F5EB
:100C7000807F07D0B1F5007FF0D142F4003242F01E
:100C8000090203E042F4003242F00A02DA61E2684B
:100C90001A625E6258612AE0A4682A4342F4003274
:100CA000211DD962DA6122785E62586142B1012A5F
:100CB00021D01F4B1F4A204840F211111CF0DEFDCD
:100CC000DA69618822F47F42013922F0100242EA97
:100CD0000122DA610120144BDA6942F02002DA6164
:100CE000DA699206FCD410229A600028BDD0134A1B
:100CF0001A60BDE8F8836288D969541E21F47F42E6
:100D000022F0100242EA0422BCF1FF0042F010027D
:100D100018BF0120DA61DEE744F40034DC61B8E793
:100D200040F20122E4E700BF00B0024001020100EE
:100D30005EEF010878EF0108D2EE0108010202001F
:100D400070B50C46897FFFF735FFA68AE18A628B72
:100D5000154B2569586341EA0641921B5964DD63CE
:100D60001A642668E168082E0DD19A611A615862EA
:100D7000207F0E4A42EA0062DA610D4A19625D6123
:100D8000DD601A6070BD0022D8611A6148090A0A44
:100D900002F4784200F4FC600243C1F3C4010A4348
:100DA0009A63044AEDE700BF00B002400900010069
:100DB0000102020001020300034B1A68D207FCD4AF
:100DC00023229A60704700BF00B0024030B50F4C3C
:100DD0002568ED07FCD423250904A56041F0010135
:100DE0000225FF2B65636164E0630AD008496562F0
:100DF00041EA0363E361074B22626061E0602360C4
:100E000030BDE561039BA363034BF8E700B00240EC
:100E100009000100010002000100030001207047E9
:100E20000C2070470C2303FB0100083070470C2393
:100E300003FB0100083070470120704741F2781031
:100E4000704741F2781303FB01000830704741F20C
:100E5000781303FB01000830704701207047102011
:100E6000704700EB01100830704700EB01100830AC
:100E70007047084601F08ABA10B5034B0360044678
:100E800008F001F8204610BD78F0010810B50446BE
:100E9000FFF7F2FF204614211CF0C2FC204610BDD3
:100EA00010B5034B0360044607F0EDFF204610BD6C
:100EB00044F0010810B50446FFF7F2FF20464FF456
:100EC0008C511CF0ADFC204610BD000010B5034B4A
:100ED0000360044607F0D7FF204610BD10F001085C
:100EE00010B50446FFF7F2FF204618211CF098FCCD
:100EF000204610BD10B5094B0360044600F58D5027
:100F00000C30FFF7B9FF04F12C00FFF7C9FF04F123
:100F10001400FFF7DBFF204610BD00BFACF0010856
:100F200008B50248FFF7E6FF08BD00BFAC0100208E
:100F300010B50446FFF7DEFF204641F21C311CF0DD
:100F40006FFC204610BD00002DE9F34101F0A8F828
:100F5000054601F0A9F8002401462346284622460A
:100F6000009410F05DFB264B264A274D1A60204660
:100F700002F018FC254810F0BBFA2B78BFF35B8F0A
:100F8000DB0737D428461CF04DFC98B3204C214B8E
:100F9000236004F12C0808F58C5707F1180604F1BA
:100FA00014006060C4F80880E760266107F06CFFF9
:100FB000194B6361404607F067FF184BE362384600
:100FC00007F062FF04F58053154AC3F8AC2104F51D
:100FD0008E5002F063FC224604F58E51304602F03A
:100FE00053FC304601F0D2F90E481CF065FC28464F
:100FF0001CF024FC0C4802B0BDE8F041FFF72CBC0B
:1010000060350120E8220020A8010020080000200F
:10101000AC010020ACF0010810F0010844F0010818
:1010200078F00108210F00086C2200200148FFF72A
:1010300025BC00BF6C22002070B5234C234E244BEE
:10104000244D23603046FFF77BFD284613F0F2FB6A
:10105000214B2248DC60224C03600022F0204FF438
:1010600080712080C3E912121E4C1F492080C3E901
:1010700019121E4C1A864FF080714FF4A0705967F8
:101080000121C3E90422C3E90622C3E90822C3E916
:101090000A22C3E90E22C3E91022C3E91422C3E9DC
:1010A00016221A6683F86C201A67C3E9016583F873
:1010B000781020800E4C83F8341020800D48027088
:1010C0000D4A1A6070BD00BFC8140020CC14002067
:1010D00014EB0108EC2200206C220020FC340120DB
:1010E000F0340120F634012001000001F234012027
:1010F000F8340120F4340120A0EC01080148FFF786
:10110000FBBC00BFCC140020034B902283F85A2371
:1011100083F85823704700BF00E100E0094A0A49FC
:10112000D3680A48C3F30A03013B9BB20B801169E1
:10113000C1F30A01013901801364536B43F00103C9
:101140005363704700680140682300206623002035
:10115000014BD3F8AC00704700680140024B0122FC
:10116000C3F8AC105A6270470068014070B504467D
:1011700008F091F923685D6E0DF03AFA01462046B9
:10118000A8472368054AD3F888502046AC46002378
:10119000BDE87040A2F51631604700BF00B004D032
:1011A00008F060B990F84B3013B1024B01221A706D
:1011B00008F064B96423002008F01EB908F077BA7B
:1011C000034B4FF080629A604FF080729A607047D4
:1011D00000E100E0084B4FF08062C3F88820BFF3C5
:1011E0004F8FBFF36F8F4FF08072C3F88820BFF32B
:1011F0004F8FBFF36F8F704700E100E010B5144CC4
:10120000236823B3134B144A1B6C11888B4213D1F0
:10121000124B198804F02EF9226892F866300133D7
:1012200082F86630FFF716FC206808F085FEBDE8FE
:1012300010400020FFF784BA04F01CF9206803680E
:101240001B6A9847BDE810400020FFF7A3BA10BD05
:10125000FC34012000680140682300206623002040
:1012600007B5064BADF806001B68054801220DF1D5
:10127000060104F04BFE03B05DF804FB10000020F3
:101280003C25002008B5642005F047FDFBE7000081
:1012900030B595B0102200210AA81CF075FC14226C
:1012A000002103A81CF070FC00241D4B01941A6C53
:1012B00042F080521A641B6C03F080530193019B2F
:1012C000184B02941A6842F440421A601B6803F4F7
:1012D000404302930122029B4FF48033CDE908235F
:1012E00002254FF48003CDE90E5308214FF4A87373
:1012F000CDE9101308A804231393129504F0D8F82D
:101300000F23CDE903354FF4A0504FF48053CDE9BE
:101310000603052103A8059404F0A8FA15B030BD12
:1013200000380240007000402DE98048A1B002F072
:10133000D5FDFFF7ADFF1422002113A800241CF0F7
:1013400023FCC54B01941A6BC448C54D42F01002F2
:101350001A631A6B02F010020192019A02941A6B3E
:1013600042F020021A631A6B02F020020292029AE3
:1013700003941A6B42F080021A631A6B02F0800227
:101380000392039A04941A6B42F004021A631A6BD4
:1013900002F004020492049A05941A6B42F00102CE
:1013A0001A631A6B02F001020592059A06941A6BF1
:1013B00042F002021A631A6B02F002020692069AC7
:1013C00007941A6B42F040021A631A6B02F0400253
:1013D0000792079A08941A6B42F008021A631B6B73
:1013E00003F00803089322463C21089B03F05CFAB3
:1013F0009C482246042103F057FA22469A484FF4AB
:10140000405103F051FA01264FF003093C23934861
:10141000CDF8589013A902274FF00408CDE91336F0
:10142000159403F05BF98F48159413A9CDE9138641
:10143000169703F053F913A94FF440538A48CDE9A6
:101440001336CDE9154703F049F98848884B036006
:1014500003F038F8874A884B2C62C5E900232846F8
:101460004FF48043C5E90434C5E90244C5E90644A4
:1014700003F004FC1021284603F040FE21462846D4
:1014800003F05BFE7D487E4984624FF48273C0E9BD
:1014900000134FF400751823C0E906530A23794D51
:1014A000C362C0E90244C0E90444C0E9084404F04E
:1014B000D1FC754B1397C5E9003640221023C5E9CE
:1014C00004324FF4C0724FF40053C5E906244FF0C4
:1014D000070B4FF4006213A92846AB624FF0080ACD
:1014E000C5E90824C5E90248CDE916B9CDE914B823
:1014F000CDE9187704F0AEFB4FF6FF720CA9284631
:10150000CDE90DA609940C960F9404F0C3FB304668
:1015100002F010FD4FF6FF720CA92846CDE90C7AB7
:10152000CDE90E6404F0B6FB4FF6FF720CA9284615
:10153000CDE90C9ACDE90E8404F0ACFB4FF40C72AB
:101540000992099A0F920CA94FF6FF722846CDE92D
:101550000C8A0E9604F09EFB40F26A51284604F075
:10156000B7FB2146342213A81CF00EFB474D484A16
:10157000AC86C5E900240922C5E905261D2240F2F2
:101580000D1CC5E9072940F24312C5E909C240F222
:10159000171E40F247122846C5E90BE2C5E902448E
:1015A0002C6185F8364003F06DFEFF20F0214FF4EA
:1015B000A072CDE918044FF480690520CDE9141418
:1015C000CDE91627CDE91A90CDE91C411E9213A949
:1015D0002246284613942F4DADF87C408DF87E406E
:1015E00003F01BFF2C4A2A601268DFF8BCA090476A
:1015F0002A682A4DD2689047294AC5E90A47C5E9B1
:101600000C442846C5E90024C5E9027402F06AFFCB
:101610003146284603F01EF81023224D1A46214673
:1016200013A81CF0B1FA4FF440334FF08052C5E9D3
:1016300000A328464FF08073C5E90A32AC602C61E4
:101640002C7685F82040EC60EE6185F830406E61C4
:1016500002F084FC2AE000BF003802400010024083
:101660000C24002000080240000C0240C42300208B
:1016700000300240005C0040A08601003C250020B4
:101680000050014008250020400100A060240020F7
:10169000006801407023002014000020CC230020AB
:1016A00000B002407C23002000200140334BCDF8E5
:1016B00054B013A92846CDE9133602F013FE28468C
:1016C00002F0F2FC1C2221460CA8CDE90A441CF0D1
:1016D0005BFA2022214613A81CF056FA284D29490E
:1016E000AC605323C5E90013284642F20F73C5E9E5
:1016F0000334C5E9054405F051F80AA92846CDE9A7
:101700000A4405F081F941F2883360204246CDE970
:101710000C030CA92846CDE90E44CDE910441294DF
:1017200005F09EF84FF4005313A928461893CDE90D
:101730001344CDE9154417941A9405F0A3F94146D2
:10174000284605F05FF9284600F036FBFEF74CFF0F
:10175000FEF749FF05F06CFA0B4A0C48214605F0EC
:1017600093FA0B4B0B4A186021460B4805F08CFA94
:101770000A4B186005F06EFAFEE700BF1200001079
:101780009425002000000140F4F0010885120008B3
:1017900078230020D0F00108ED0500086C2300201C
:1017A00008B5134802F00AFD124BDFED136A80B250
:1017B00018801B889BB207EE903AF8EE677AB0EE7D
:1017C000087A67EE877A0D4B87EEA67ADFED0C7A02
:1017D00083ED007ADFED0B6A0B4B37EE677AC7EECD
:1017E000267AB3EE097A77EE877AC3ED007A08BDE0
:1017F0007C2300207423002000F07F45E02500209A
:101800005C8F423F0AD7233BDC250020704770479E
:101810007FB5094B8DF817201B6802930DF1170255
:101820000123009201930A460146044803F0CEFAD0
:1018300007B05DF804FB00BF0C0000200C24002062
:101840007FB500238DF81730084B1B6802930A46BA
:1018500001230DF11701009101930146044803F0A3
:1018600045FB9DF8170007B05DF804FB0C00002055
:101870000C2400201FB5084C24680092CDE90134E7
:101880000A4601230146054803F030FB003818BF23
:10189000012004B010BD00BF0C0000200C2400206B
:1018A00002F048BB08B506480022042102F0FCFF04
:1018B000BDE8084002480122042102F0F5BF00BF44
:1018C0000008024038B50B4D044601220A484FF487
:1018D000005102F0E9FF00220421284602F0E4FF53
:1018E0002046FFF7BDFC28460122BDE83840042110
:1018F00002F0DABF00080240000C024038B50B4D80
:10190000044600220A484FF4005102F0CDFF0022A5
:101910000421284602F0C8FF2046FFF7A1FC284614
:101920000122BDE83840042102F0BEBF0008024099
:10193000000C0240F7B5144E144F05460C463046D5
:101940000022042102F0B0FF00224FF4005138467B
:1019500002F0AAFF2846FFF783FC0D4B0D481B68D9
:10196000224601A904F074FC384601224FF40051CC
:10197000019C02F099FF30460122042102F094FFFD
:10198000204603B0F0BD00BF00080240000C02403A
:10199000100000203C25002002F0CCBA0268034B66
:1019A0009A4201D102F0B4BA704700BF0010004063
:1019B0007047000082B00E4B00220092596C41F437
:1019C00080415964596C01F4804100910099019261
:1019D000196C41F0805119641B6C03F08053019322
:1019E000019B0F216FF0010002B002F02BBD00BF80
:1019F0000038024007B50F4B02689A4216D1002208
:101A000003F58C330192596C41F4807159645B6C1D
:101A100003F48073019305211220019B02F012FD53
:101A2000122003B05DF804EB02F03EBD03B05DF898
:101A300004FB00BF002001400268094B9A4282B0BB
:101A40000BD100230193074B1A6B42F480521A63A7
:101A50001B6B03F480530193019B02B0704700BFDE
:101A6000003002400038024007B50F4B02689A422E
:101A700016D10022A3F5F0430192196B41F4000145
:101A800019631B6B03F40003019305215A20019B8A
:101A900002F0D8FC5A2003B05DF804EB02F004BD5C
:101AA00003B05DF804FB00BF00B002402DE9F04335
:101AB000044689B01422002103A81CF065F82268AE
:101AC000244B9A4243D1244C244800250095236B93
:101AD00043F004032363236B03F004030093009B90
:101AE0000195236B43F001032363236B03F0010390
:101AF0000193019B4FF012094FF400734FF001085E
:101B00000327042603A9CDE90339CDE90587079604
:101B100002F0E4FD4FF480731148079603A9CDE964
:101B20000339CDE9058702F0D9FD0295236C43F412
:101B300000032364236C03F400030293029B236AD3
:101B400043F400032362236A23F40003236209B0F1
:101B5000BDE8F083005C004000380240000802400D
:101B600000000240F0B599B004461422002107A8F5
:101B70001CF00AF830220DEB020000211CF004F8E2
:101B800022685E4B9A4240F0B78008230C93C02332
:101B90001093042312930CA84FF40033159303F011
:101BA0002FFF08B1FFF704FF554B5648002400945F
:101BB0005A6C42F080625A645A6C02F08062009261
:101BC000009A01941A6B42F020021A631A6B02F019
:101BD00020020192019A02941A6B42F001021A63E8
:101BE0001A6B02F001020292029A03941A6B42F0FD
:101BF00002021A631A6B02F002020392039A04941F
:101C00001A6B42F040021A631A6B02F0400204920F
:101C1000049A05941A6B42F004021A631A6B02F0DC
:101C200004020592059A06941A6B42F008021A63A0
:101C30001B6B03F00803069302250E26069B0B96EA
:101C40004FF4806307A9CDE90735CDE9094502F0D6
:101C500045FD41F658032C480B9607A9CDE90735F9
:101C60000927CDE9094502F039FD032327480B97E1
:101C700007A9CDE90735CDE9094502F02FFD4FF45D
:101C8000706322480B9607A9CDE90735CDE90945D0
:101C900002F024FD4FF40C631D480B9607A9CDE913
:101CA0000735CDE9094502F019FDC02319480B9607
:101CB00007A9CDE90735CDE9094502F00FFD082355
:101CC00015480B9607A9CDE90735CDE9094502F07E
:101CD00005FD4FF4A0530E480B9707A9CDE9073532
:101CE000CDE9094502F0FAFC58202246052102F010
:101CF000A9FB582002F0D8FB19B0F0BD00680140E4
:101D0000003802400014024000000240000402407B
:101D10000018024000080240000C024010B50446C2
:101D200088B01422002103A81BF02EFF2268144B58
:101D30009A4223D103F56843002101915A6C11485E
:101D400042F480125A645A6C02F480120192019A91
:101D500002911A6B42F020021A631B6B03F02003FE
:101D60000293029B4FF4607202230321CDE9032307
:101D70000523CDE9061303A902F0B0FC08B010BD9D
:101D800000500140001402400268094B9A4282B0A0
:101D90000BD100230193074B5A6C42F001025A64A5
:101DA0005B6C03F001030193019B02B0704700BF1D
:101DB000000001400038024010B5044686B01422ED
:101DC000002101A81BF0E0FE22680E4B9A4216D1BA
:101DD000002300930C4B0D481A6B42F001021A636A
:101DE0001B6B03F001030093009B4FF4007202236E
:101DF000CDE9012301A90123059302F06FFC06B090
:101E000010BD00BF00000140003802400000024049
:101E10002DE9F04186B0002303932B4B1C68002C66
:101E20004FD14FF00108C3F80080284B00949A6B03
:101E3000274842EA08029A639B6B03EA080300936F
:101E4000022703260C25009B01A94FF63F03CDE98D
:101E50000137CDE9046502F041FC1E48059501A952
:101E6000CDE90187CDE9034602F038FC48F233138F
:101E70001948059501A9CDE90137CDE9034602F0DE
:101E80002DFC4FF683731548059501A9CDE901375F
:101E9000CDE9034602F022FC4CF20373104805958D
:101EA00001A9CDE90137CDE9034602F017FC602313
:101EB0000C48059501A9CDE90137CDE9034602F0AB
:101EC0000DFC06B0BDE8F081E4250020003802409A
:101ED00000140240000802400018024000100240B6
:101EE000000C02400004024070B588B00023029349
:101EF000204B1A6C42F010021A641B6C03F01003A2
:101F00000293054601A903A8029B03F05BFD069B13
:101F10004BBB03F047FD184E184B336040F2E733DC
:101F2000F360174BB0FBF3F3013B736030460023C3
:101F30003361B360B36104F005FC044680B93046F8
:101F400004F0BAFA044658B9362002F0ADFA0F2D63
:101F50000DD822462946362002F074FA094B1D603E
:101F6000204608B070BD03F01DFD4000D3E70124FA
:101F7000F6E700BF00380240E825002000100040CE
:101F800040420F007C0000207047FEE7FEE7FEE7BE
:101F9000FEE77047014802F016B900BF7C2300201D
:101FA000014804F0C7BA00BFE8250020014803F04B
:101FB000D7B900BF60240020014802F0C1BA00BFB9
:101FC000CC2300200120704708B51BF089FC1623A4
:101FD00003604FF0FF3008BD08B51BF081FC1623ED
:101FE0000360FEE770B50D4614460E46731B9C4217
:101FF00001DC204670BDAFF3008006F8010BF5E769
:1020000070B50D4614460E46731B9C4201DC2046FB
:1020100070BD16F8010BAFF30080F5E74FF0FF300D
:1020200070474FF400534B60002070470120704709
:10203000002070470A4A116808B5034609B90949E2
:1020400011601068694603448B4206D91BF048FCB6
:102050000C2303604FF0FF3008BD1360FCE700BFA6
:1020600030260020A8370120704710B5042104460F
:102070001BF0D6FB204610BD012908B506D0022969
:1020800008D059B901F0DAFB006808BD01F0D6FBB1
:102090004068FAE701F0D2FB8068F6E70020F4E739
:1020A000004870472CF101080120704713B5002447
:1020B00051B1036801948DF8034001AA9C680DF1A9
:1020C0000303A04702B010BD0846FBE740897047F4
:1020D000808970478088704783798088184480B2EF
:1020E0007047C07900F07F007047C079C009704721
:1020F000704710B5082104461BF092FB204610BD26
:102100007047704700F596730868496803C37047C5
:10211000704770474160704770470000064BC0F839
:1021200048310023C0F84C3100F5A073C0F84401D9
:10213000C0F83C31704700BFDD2100080123037265
:1021400070477047704710B4C26841685410034626
:1021500001EB6200D20748BF0A599B685DF8044B47
:1021600048BFD358184743682BB183682BB9C06860
:1021700000F001007047184670470120704710B505
:102180000C2104461BF04CFB204610BD10B510215D
:1021900004461BF045FB204610BD10B54FF4AC7152
:1021A00004461BF03DFB204610BD08B50CF020FA9C
:1021B000BDE808400CF0C0BD10B50446D0F83C01A5
:1021C00058B10368DB68984738B1D4F83C0103681C
:1021D0009B6898470023C4F83C3110BD2DE9F14FAE
:1021E000D0E9545A0746A86803681B6A984741F229
:1021F0007713984205D8454B454AA32145481BF023
:102200003DFB686803681B6A98470F2803D8424B58
:102210003F4AA421F2E7E86803681B6A98470B2845
:1022200003D83E4B3A4AA521E8E7DFF8F8900CF0D6
:10223000DFF90CF0E3F9D9F8000010B10368DB68AE
:102240009847D9F8000010B103681B689847DFF879
:10225000D880D8F8000010B103685B699847D7F8B8
:10226000380110B103685B689847D8F8000010B1D6
:1022700003681B689847D7F8380110B103689B685A
:102280009847E868036800215B6A98474FF0000BA5
:10229000234B03600446C0F804B080F808B0A86877
:1022A000036859465B6A9847064601F035FB686843
:1022B000036859465B6A98473146054601F012FBB0
:1022C000C9F80040C7F83851C8F80060E5B12B1DC7
:1022D000CAF800303368C5F808A03046DB68F563FB
:1022E00098472B6828461B689847214630460DF0D2
:1022F0002DFE236820461B69984723685B692046AA
:1023000001B0BDE8F04F18472B46E1E750F1010856
:10231000DEF10108E2F2010829F30108CCF301081B
:10232000DCF401084435012040350120F8B50446AD
:1023300017460E460CF07CF9104B0025C4E9547684
:102340000F4E1C60C4E952550E4B306823600E4B93
:10235000C4E95035036801219B68C4E94E5598478C
:10236000284601F01FFA336893F876200AB1D86C3A
:1023700000B9986814F045F82046F8BD50350120A2
:10238000FC34012090F4010878F40108064BC0F8F1
:1023900048310023C0F84C3100F5A073C0F8440167
:1023A000C0F83C31704700BFDD210008006A70476B
:1023B000406A704770478B8880690A68DB0A50F86A
:1023C00023001044704710B5C2B1137BB3B1547BE6
:1023D000D27A240204F4E0641443C26998B202EB96
:1023E000840213888B4202D192F9020010BD05D8F5
:1023F000013880B204320028F3D1F7E70020F5E776
:1024000010B5282104461BF00BFA204610BD000031
:1024100030B589B00446BDF850500695BDF84C5013
:1024200005959DF8405004959DF83C5003959DF806
:10243000385002959DF8345001959DF83050009524
:102440000DF01AF9064B2360119BA361129BE36107
:10245000159B2362169B6362204609B030BD00BF06
:1024600000F501080020704781807047C1807047E7
:1024700001817047418170477047704770477047CE
:10248000704710B4C4880368121B84885B6D091BF5
:1024900012B25DF8044B09B218474FF6FF738381FF
:1024A0004FF0FF3303621368C36110607047806AA6
:1024B00070477047704770477047704790F8252005
:1024C0001AB190F8242002B11860704700207047BC
:1024D0008B88838001207047704780F82C107047EC
:1024E00010B40368046BD3F8A430624361435DF811
:1024F000044B1847D0ED0C7A0368F8EEE77AD3F86E
:10250000A43020EE270AB5EEC00AF1EE10FA17DB70
:10251000B6EE007A30EE070ABDEEC07A17EE101A5A
:1025200060EEA70AF5EEC00AF1EE10FA1CDBF6EE3B
:10253000007A70EEA70AFDEEE07A17EE902A1847AF
:10254000BDEEC07AF8EEC76A17EE102A30EE660AC2
:10255000F7EE086A30EE260A511EBDEEC00A10EEF4
:10256000102A0A441146DBE7FDEEE07AB8EEE77A7E
:1025700017EE902A70EEC70AB7EE087A70EE870A57
:10258000013AFDEEE00A10EE90CA94446246D6E7A6
:1025900010B40368046BD3F8B03062435DF8044BA9
:1025A0001847D0ED0C7A0368F8EEE77AD3F8B0302C
:1025B00027EE800AB5EEC00AF1EE10FA08DBF6EE5F
:1025C000007A30EE270AFDEEC07A17EE902A1847FF
:1025D000FDEEC07AB8EEE77A17EE902A30EE470AA1
:1025E000B7EE087A30EE070A013ABDEEC00A10EEE7
:1025F00010CA94446246EAE710B40368446BD3F807
:10260000BC30624361435DF8044B1847D0ED0D7A4E
:102610000368F8EEE77AD3F8BC3020EE270AB5EE6F
:10262000C00AF1EE10FA17DBB6EE007A30EE070AB8
:10263000BDEEC07A17EE101A60EEA70AF5EEC00ADA
:10264000F1EE10FA1CDBF6EE007A70EEA70AFDEE52
:10265000E07A17EE902A1847BDEEC07AF8EEC76A06
:1026600017EE102A30EE660AF7EE086A30EE260AF8
:10267000511EBDEEC00A10EE102A0A441146DBE7D7
:10268000FDEEE07AB8EEE77A17EE902A70EEC70A10
:10269000B7EE087A70EE870A013AFDEEE00A10EE16
:1026A00090CA94446246D6E710B40368446BD3F8EA
:1026B000C03062435DF8044B1847D0ED0D7A0368D3
:1026C000F8EEE77AD3F8C03027EE800AB5EEC00AFC
:1026D000F1EE10FA08DBF6EE007A30EE270AFDEE96
:1026E000C07A17EE902A1847FDEEC07AB8EEE77A66
:1026F00017EE902A30EE470AB7EE087A30EE070A56
:10270000013ABDEEC00A10EE10CA94446246EAE7F0
:10271000D0F82C31026B002B07DB02EB430393FB59
:10272000F2F000EBD070401070476FF0010000FB3A
:102730000320013890FBF2F000EBD07040104042D3
:102740007047D0ED4B7AB8EEE70AD0ED0C7AF8EE90
:10275000E77A80EE270A7047D0F82C017047D0F84E
:102760003031026B002B07DB02EB430393FBF2F0EB
:1027700000EBD070401070476FF0010000FB0320A9
:10278000013890FBF2F000EBD070401040427047EF
:10279000D0ED4C7AB8EEE70AD0ED0C7AF8EEE77A95
:1027A00080EE270A7047D0F830017047D0F83431F6
:1027B000426B002B07DB02EB430393FBF2F000EBD1
:1027C000D070401070476FF0010000FB032001380B
:1027D00090FBF2F000EBD070401040427047D0ED1B
:1027E0004D7AB8EEE70AD0ED0D7AF8EEE77A80EE92
:1027F000270A7047D0F834017047D0F83831426B5F
:10280000002B07DB02EB430393FBF2F000EBD070ED
:10281000401070476FF0010000FB0320013890FB6F
:10282000F2F000EBD070401040427047D0ED4E7A8D
:10283000B8EEE70AD0ED0D7AF8EEE77A80EE270AD7
:102840007047D0F83801704770B503680446D3F874
:1028500088300D461646984723683246294620465A
:10286000D3F89030BDE8704018470368D3F894302F
:1028700018470368D3F8D43018470368D3F8E0301A
:1028800018470368002A10B4D3F8A430046B0EDB99
:1028900004EB420292FBF4F101EBD1714910B0F963
:1028A0001E215DF8044B013A0A44494218476FF073
:1028B000010101FB0241013991FBF4F101EBD171FE
:1028C00049104942EBE70368D3F83C311847026BE3
:1028D00003685143D3F8483118470368D3F84431AB
:1028E0001847D0ED0C7A0368F8EEE77AD3F8483150
:1028F00027EE800AB5EEC00AF1EE10FA08DBF6EE1C
:10290000007A30EE270AFDEEC07A17EE901A1847CB
:10291000FDEEC07AB8EEE77A17EE902A30EE470A5D
:10292000B7EE087A30EE070A511EBDEEC00A10EE6F
:10293000102A0A441146EAE7C0F83C1170470368C0
:10294000D3F850311847036810B5D3F85C3104460A
:1029500098470028236B07DB03EB400090FBF3F064
:1029600000EBD070401010BD6FF0010202FB003090
:10297000013890FBF3F000EBD07040104042F2E7DA
:102980000368D3F858311847036810B5D3F85C31A1
:102990000446984707EE900AB8EEE70AD4ED0C7AA1
:1029A000F8EEE77A80EE270A10BDD0F83C017047B8
:1029B000026B03685143D3F868311847D0ED0C7AA5
:1029C0000368F8EEE77AD3F8683127EE800AB5EEAF
:1029D000C00AF1EE10FA08DBF6EE007A30EE270AB4
:1029E000FDEEC07A17EE901A1847FDEEC07AB8EEE9
:1029F000E77A17EE902A30EE470AB7EE087A30EE03
:102A0000070A511EBDEEC00A10EE102A0A441146F4
:102A1000EAE7C0F840117047036810B5D3F8743185
:102A2000044698470028236B07DB03EB400090FB2C
:102A3000F3F000EBD070401010BD6FF0010202FB0C
:102A40000030013890FBF3F000EBD07040104042B2
:102A5000F2E7036810B5D3F874310446984707EEDF
:102A6000900AB8EEE70AD4ED0C7AF8EEE77A80EE39
:102A7000270A10BDD0F84001704708467047036828
:102A8000026BD3F88431002910B504460EDB02EB4B
:102A9000410191FBF2F101EBD171491009B22046DD
:102AA0009847D4E94F2302FB003010BD6FF00100BE
:102AB00000FB0121013991FBF2F101EBD1714910C9
:102AC0004942EBE7006B7047406B70470368D3F8EF
:102AD000483118470368D3F85C311847026B036824
:102AE0005143D3F814311847036870B5D3F818511F
:102AF000D3F88031D0F84461044698472B4656F805
:102B000020102046BDE870401847D0F84831B0F991
:102B10001E011944081A704780F82610704790F873
:102B20002600704710B50022B1F90840B1F90A102B
:102B3000028042808480C18010BD002202804280D9
:102B40008280C2807047C1627047C06A70470120AE
:102B5000704770477047C06B18B10368D3F8803076
:102B60001847704730B5B2F81A11B2F91441B2F9EA
:102B70004050B2F8422044802144521A0021018082
:102B80008580C28030BD10B54280BDF90840BDF9D6
:102B90000C2004808280C38010BD0B680846D3F8E7
:102BA000D43018470B680846D3F8E0301847B1F91D
:102BB00014017047B1F81401B1F81A310344B1F8A7
:102BC0004200C01A00B27047B1F916017047B1F85F
:102BD0001601B1F818310344B1F84000C01A00B230
:102BE00070470B680846D3F8143111461847B2F8FD
:102BF000181130B5B2F9165105806C18B2F84010B2
:102C0000B2F94220C280091B00244480818030BD7B
:102C100002808380BDF90020BDF904304280C3806A
:102C200070470B680846D3F8EC3018470B68084625
:102C3000D3F8F8301847B1F916017047B1F816010A
:102C4000B1F818310344B1F84000C01A00B270471F
:102C5000B1F914017047B1F81401B1F81A31034405
:102C6000B1F84200C01A00B270470B680846D3F8AA
:102C700018311146184770477047704770477047C2
:102C800010B5402104461AF0CBFD204610BD10B50A
:102C9000402104461AF0C4FD204610BD10B54FF483
:102CA000BA7104461AF0BCFD204610BD10B541F2C1
:102CB000781104461AF0B4FD204610BD90F82C306F
:102CC0000BB106F02CB9704713B503460846D3E99B
:102CD0000C1403680191D3F88C309847019902468F
:102CE000204602B0BDE8104007F07ABF13B5034696
:102CF0000846D3E90C1403680191D3F8943098473F
:102D000001990246204602B0BDE8104007F068BFB6
:102D100090F8252012B103685B69184770470000DE
:102D20000A1E10B503DBB0F91E41944206DC084BC5
:102D3000084A094840F233611AF0A0FD0368D0F850
:102D40004441D3F88031984754F8200010BD00BFAB
:102D500050F5010873F50108C2F501080B1E10B506
:102D6000044603DBB0F91E219A4206DC074B084AF1
:102D7000084840F22D611AF081FD0368D3F88431D0
:102D80009847D4E94F2302FB003010BD50F50108ED
:102D90001FF60108C2F501082DE9F0411D46036840
:102DA000BDF918701B6B04461646984723683146D8
:102DB00020465B6B98472368294620469B6B9847C3
:102DC000236839462046DB6BBDE8F0411847000018
:102DD000094A02604FF4807100228184FF21C0E91A
:102DE0000122C0E90322C0E90522C0E9072280F8D8
:102DF00026108262704700BF6404020837B501AB39
:102E000015460CF02EFD00284FEA401401992A4681
:102E10004FF0200004DB0CF043FD204403B030BD34
:102E20000CF03EFD201AF9E770B5B0F91441B0F886
:102E30001A516319B0F84250ED1AD0E94D320E46DE
:102E40002DB2D21A691EF01AFFF7D8FF2C44013CAC
:102E5000C0EB441070BD38B504460846B4F81831CC
:102E6000B4F816110B44B4F84010D4E94B52C91A07
:102E700009B2521B0139401BFFF7C0FFB4F91631EC
:102E800000EB431038BD000070B50023124E838064
:102E9000124B0360336893F8762005460AB1D86C6C
:102EA00000B998680368DB6A98473368B0FA80F421
:102EB000D86C640930B10368DB6A9847002808BF02
:102EC00044F001042CB9064B064A07482C211AF09D
:102ED000D5FC284670BD00BFFC340120E0F8010895
:102EE0006EF60108CCF6010805F7010810B5044696
:102EF00007F060FA0A4A226000230122C4E90C2389
:102F0000084AA2634FF6FF72A2872E22E36284F87A
:102F10004030A4F84230A4F84420A364204610BDF9
:102F2000C403020848F101082DE9F04F2DED048B90
:102F3000044685B0A04600260CF05CFEF14BE6632B
:102F400048F8403B04F16C0A404604F19805FFF74D
:102F50003FFF5046FFF73CFF0A21284607F0DCFD03
:102F6000E94BC4F89830012704F5F2733146092281
:102F7000C4E977362846C4E97576FFF7B1FAE34B22
:102F8000C4F8983004F50373184608EE103A07F0B9
:102F900011FADF4BC4F80C3204F50F724FF0020344
:102FA000104684F838320392FFF76EFFD94BC4F80D
:102FB0003C3204F5147B2433C4F844325846C4F838
:102FC000486207F0F7F94FF00A0904F52472D24B72
:102FD000C4F88492C4F850321046C4E99F6784F85C
:102FE0008872C4F88C6208EE902A07F0E3F904F5C1
:102FF0003472CA4BC4F8C492C4F890321046C4E983
:10300000AF6784F8C872C4F8CC6209EE102AFFF7E3
:103010006DFF04F54772C24BC4F8D032104609EE7A
:10302000902AFFF763FFBF4BC4F81C334FF4A0791D
:103030004FF4616104F55A7009F040FECDF800903C
:10304000F023324631464046FFF7A6FE4FF07F435D
:10305000A366CDF80090F023324631465046FFF784
:103060009BFE4FF0FF33C4F8943032463946284671
:10307000FFF7EAFBCDF80090F023324631462846B0
:10308000FFF78AFE1E22142319460092284607F0F5
:10309000F5FC3346324631462846009607F0F1FBF0
:1030A0003C2214212846FFF7A7FADFF8A4923A46FB
:1030B000D4E9A01007F094FD59462846C4F8807260
:1030C000C4F87C92C4F8847284F8887207F0E4FB38
:1030D0004FF0040B3A46D4E9B01007F081FD18EE2A
:1030E000901A2846C4E9AF97C4F8C4B284F8C872ED
:1030F00007F0D2FB3A46D4E9C01007F071FD19EE93
:10310000101A2846C4E9C07BA4F80C73C4F8FC92DA
:1031100007F0E6FB3A46D4E9D31007F061FD19EE5B
:10312000901A2846C4E9D37BA4F85863C4F848939E
:1031300007F0C4FB7C4BC4F848324EF2AA03A4F853
:103140004C32039BC4F834324FF0020318EE101ACD
:1031500084F83832284607F09FFBD4ED337A9FED90
:10316000737AF8EEE77A67EE877AF5EEC07AF1EED9
:1031700010FAC0F22A81B6EE007A77EE877AFDEE79
:10318000E77A17EE901A284607F084FDD4ED337ADB
:103190009FED677AF8EEE77A67EE877AF5EEC07A08
:1031A000F1EE10FAC0F22581B6EE007A77EE877A5A
:1031B000FDEEE77A17EE901A284607F06BFDD4ED86
:1031C000337A9FED5C7AF8EEE77A67EE877AF5EE70
:1031D000C07AF1EE10FAC0F22081B6EE007A77EEF6
:1031E000877AFDEEE77A17EE901A284607F052FD2F
:1031F000D4ED337A9FED507AF8EEE77A67EE877A6E
:10320000F5EEC07AF1EE10FAC0F21B81B6EE007A4C
:1032100077EE877AFDEEE77A17EE901A284607F0E8
:1032200039FDD4ED337A9FED457AF8EEE77A67EE13
:10323000877AF5EEC07AF1EE10FAC0F21681B6EE9A
:10324000007A77EE877AFDEEE77A17EE901A284635
:1032500007F020FDD4ED337A9FED397AF8EEE77A66
:1032600067EE877AF5EEC07AF1EE10FAC0F21181BE
:10327000B6EE007A77EE877AFDEEE77A17EE901ACF
:10328000284607F007FDD4ED337A9FED2E7AF8EE4D
:10329000E77A67EE877AF5EEC07AF1EE10FAC0F2BF
:1032A0000C81B6EE007A77EE877AFDEEE77A17EEBC
:1032B000901A284607F0EEFCD4ED337A9FED227A7F
:1032C000F8EEE77A67EE877AF5EEC07AF1EE10FA5B
:1032D000C0F20781B6EE007A77EE877AFDEEE77AE4
:1032E00017EE901A284607F0D5FCD4ED337A9FEDFF
:1032F000177AF8EEE77A67EE877AF5EEC07AF1EEA4
:1033000010FA29E098FA01082CFF010800F90108D9
:10331000040202087CFE010870F7010828F8010881
:1033200084020208240302085417E3FF2C574A4280
:103330006F7BFC41BC0E1742E8421542C91C0F428C
:1033400082025942B07B3642814FA441D60E1442CC
:10335000C59714FF38215B42C0F2D780B6EE007AE1
:1033600077EE877AFDEEE77A17EE901A284607F097
:1033700091FCD4ED337A1FED097AF8EEE77A67EE27
:10338000877AF5EEC07AF1EE10FAC0F2D280B6EE8E
:10339000007A77EE877AFDEEE77A17EE901A2846E4
:1033A00007F078FC201D4146039005F07FFD03984F
:1033B000514605F07BFD0398294605F077FD204630
:1033C00005B0BDEC048BBDE8F08FBDEEE77AF8EEFA
:1033D000C76A17EE103A77EEE67AF7EE086A77EEEC
:1033E000A67A591EFDEEE77A17EE903A0B4419467D
:1033F000C9E6BDEEE77AF8EEC76A17EE103A77EE47
:10340000E67AF7EE086A77EEA67A591EFDEEE77ABD
:1034100017EE903A0B441946CEE6BDEEE77AF8EE89
:10342000C76A17EE103A77EEE67AF7EE086A77EE9B
:10343000A67A591EFDEEE77A17EE903A0B4419462C
:10344000D3E6BDEEE77AF8EEC76A17EE103A77EEEC
:10345000E67AF7EE086A77EEA67A591EFDEEE77A6D
:1034600017EE903A0B441946D8E6BDEEE77AF8EE2F
:10347000C76A17EE103A77EEE67AF7EE086A77EE4B
:10348000A67A591EFDEEE77A17EE903A0B441946DC
:10349000DDE6BDEEE77AF8EEC76A17EE103A77EE92
:1034A000E67AF7EE086A77EEA67A591EFDEEE77A1D
:1034B00017EE903A0B441946E2E6BDEEE77AF8EED5
:1034C000C76A17EE103A77EEE67AF7EE086A77EEFB
:1034D000A67A591EFDEEE77A17EE903A0B4419468C
:1034E000E7E6BDEEE77AF8EEC76A17EE103A77EE38
:1034F000E67AF7EE086A77EEA67A591EFDEEE77ACD
:1035000017EE903A0B441946ECE6BDEEE77AF8EE7A
:10351000C76A17EE103A77EEE67AF7EE086A77EEAA
:10352000A67A591EFDEEE77A17EE903A0B4419463B
:103530001CE7BDEEE77AF8EEC76A17EE103A77EEB1
:10354000E67AF7EE086A77EEA67A591EFDEEE77A7C
:1035500017EE903A0B44194621E700BF7047000070
:1035600030B5154D2C78BFF35B8F14F001048DB08E
:103570001ED128461AF056F9D0B13F2307930F4BBE
:1035800006930F4B0F49104808940122CDE90443DC
:103590000423CDE90132CDE909440A2303940094C0
:1035A000FEF736FF09481AF087F928461AF046F95F
:1035B00005480DB030BD00BF34260020100F0208B2
:1035C000200F02081C0E0208382600205D35000876
:1035D0007047000030B5154D2C78BFF35B8F14F0A9
:1035E00001048DB01FD128461AF01CF9D8B13F2331
:1035F00007930F4B06930F4B0F4910480894CDE9E2
:10360000044301220423CDE9013200930F22142345
:10361000CDE909440394FEF7FBFE09481AF04CF982
:1036200028461AF00BF905480DB030BD6026002081
:10363000140F0208240F02082C0E02086426002032
:10364000D13500087047000030B5154D2C78BFF318
:103650005B8F14F001048DB01ED128461AF0E2F8F9
:10366000D0B13F2307930F4B06930F4B0F491048E0
:1036700008940122CDE904430423CDE90132CDE9C8
:103680000944282303940094FEF7C2FE09481AF067
:1036900013F928461AF0D2F805480DB030BD00BF26
:1036A0008C2600201C0F0208280F0208000F0208B9
:1036B0009026002045360008002070470020704703
:1036C0000EB403B503AB002153F8042B01930BF0A8
:1036D00005FE02B05DF804EB03B070470CB407B50B
:1036E00004AB53F8042B01930BF0F8FD03B05DF825
:1036F00004EB02B070470000436C10B5044673B38E
:10370000038F2BB9184B194AC02119481AF0B6F883
:10371000C38E00EB43035B8C0BB30DF02CF9238FAE
:10372000012B03D8134B144AC521EEE7E28E531C3C
:103730009BB2092B194688BFA3F10A0104EB410192
:1037400040F63F10498C814209D10A2B04EB42021A
:1037500028BF002304EB4303508C58845184204637
:10376000BDE810400DF00AB8C4FA0108CDFA01080E
:1037700078FB0108C2FB0108D0FB01080CF0C5BFB3
:1037800010B586B002AC84E806001A460AAB059371
:103790000193099B00932146089B0AF0A5FA06B005
:1037A00010BD000038B518BB124B13481B681349F5
:1037B000B3B11A689C681A4402605A681A440A60D5
:1037C0001C440F4B00221A8000F038F8054600F028
:1037D00033F80C4B1C600C4B1D600C4B188007E041
:1037E0000B4B03600B4B0B600B4B1C68002CE8D1A0
:1037F00038BD00BFB8260020BC260020C02600200F
:10380000C4260020543501205C35012058350120A4
:10381000340F02082C0F02083C0F0208044B1B68EF
:1038200053F82100034B1B6803EB4000704700BFB7
:10383000C0260020BC2600200220704700487047A8
:10384000C826002010B5FFF7C5FE044C2060FFF726
:10385000FBFE6060FFF784FEA06010BDC82600205C
:10386000704710B54FF4AC71044619F0D9FF2046EB
:1038700010BD10B50446D0F8540100F013F82046EE
:10388000BDE810400AF0A8BD10B50446FEF74EFD95
:10389000014B2360204610BDACFC010800220260F1
:1038A000704700000068034A036892ED000A9B68B5
:1038B000184700BFDC250020704704387047704768
:1038C00010B51021044619F0ABFF204610BDA0F141
:1038D0000400F5E7C06800F029B8A0F10400FFF784
:1038E000F9BF000010B500228260044AC16002F1F5
:1038F000080424320460426010BD00BFF0FC0108DF
:1039000070477047FFF7B8B910B541F27811044617
:1039100019F086FF204610BD10B50446FFF704FBE2
:10392000014B2360204610BD28FD01080346D3ED5E
:10393000337AF8EEE77A983027EE800AB5EEC00ABF
:10394000F1EE10FA09DBF6EE007A30EE270AFDEE12
:10395000C07A17EE901A07F09DB9FDEEC07AB8EE66
:10396000E77A17EE903A30EE470AB7EE087A30EE73
:10397000070A591EBDEEC00A10EE103A0B44194654
:10398000E9E7F02070474FF4A07070472920FDF759
:10399000B5BF2820FDF7B2BF08B5FDF783FFCA20E9
:1039A000FDF7ACFFC320FDF78DFF0820FDF78AFF70
:1039B0005020FDF787FFCF20FDF7A0FF0020FDF787
:1039C00081FFC120FDF77EFF3020FDF77BFFED205A
:1039D000FDF794FF6420FDF775FF0320FDF772FFEC
:1039E0001220FDF76FFF8120FDF76CFFE820FDF747
:1039F00085FF8520FDF766FF0020FDF763FF782037
:103A0000FDF760FFCB20FDF779FF3920FDF75AFF66
:103A10002C20FDF757FF0020FDF754FF3420FDF761
:103A200051FF0220FDF74EFFF720FDF767FF202032
:103A3000FDF748FFEA20FDF761FF0020FDF742FF98
:103A40000020FDF73FFFB120FDF758FF0020FDF7F4
:103A500039FF1B20FDF736FFB620FDF74FFF0A2088
:103A6000FDF730FFA220FDF72DFFC020FDF746FF38
:103A70001020FDF727FFC120FDF740FF1020FDF7C4
:103A800021FFC520FDF73AFF4520FDF71BFF15205C
:103A9000FDF718FFC720FDF731FF9020FDF712FF5B
:103AA0003620FDF72BFFC820FDF70CFFF220FDF7B5
:103AB00025FF0020FDF706FFB020FDF71FFFC22005
:103AC000FDF700FFB620FDF719FF0A20FDF7FAFE0B
:103AD000A720FDF7F7FE2720FDF7F4FE0420FDF7F1
:103AE000F1FE2A20FDF70AFF0020FDF7EBFE002083
:103AF000FDF7E8FE0020FDF7E5FEEF20FDF7E2FE12
:103B00002B20FDF7FBFE0020FDF7DCFE0020FDF77B
:103B1000D9FE0120FDF7D6FE3F20FDF7D3FEF620AB
:103B2000FDF7ECFE0120FDF7CDFE0020FDF7CAFEFB
:103B30000620FDF7C7FE2C20FDF7E0FEC820FDF7AC
:103B40002BFF2620FDF7DAFE0120FDF7BBFEE0206B
:103B5000FDF7D4FE0F20FDF7B5FE2920FDF7B2FEDC
:103B60002420FDF7AFFE0C20FDF7ACFE0E20FDF784
:103B7000A9FE0920FDF7A6FE4E20FDF7A3FE782042
:103B8000FDF7A0FE3C20FDF79DFE0920FDF79AFE03
:103B90001320FDF797FE0520FDF794FE1720FDF793
:103BA00091FE1120FDF78EFE0020FDF78BFEE12037
:103BB000FDF7A4FE0020FDF785FE1620FDF782FE2E
:103BC0001B20FDF77FFE0420FDF77CFE1120FDF792
:103BD00079FE0720FDF776FE3120FDF773FE3320D6
:103BE000FDF770FE4220FDF76DFE0520FDF76AFE31
:103BF0000C20FDF767FE0A20FDF764FE2820FDF784
:103C000061FE2F20FDF75EFE0F20FDF75BFE112009
:103C1000FDF774FEC820FDF7BFFE2920FDF76EFEFC
:103C2000BDE808402C20FDF769BE08B5FDF73AFE57
:103C30000321D320FDF77EFE80B208BD10B5C4B2CB
:103C4000022203212046FDF7E3FD0A20FDF728FEAE
:103C5000204600220321FDF7DBFDBDE810400220D5
:103C6000FDF71EBE38B50446E4B2FDF7CFFD0021D6
:103C70002046FDF7E5FD012105462046FDF7E0FD64
:103C800040EA052080B238BD10B5C4B240212046BC
:103C9000FDF7D6FD030607D54C212046FDF7D0FDE4
:103CA000003818BF012010BD01224B212046FDF72E
:103CB000AFFD204600224B21FDF7AAFD0020F2E7D0
:103CC00073B50423C4B20E461546D7210DEB03028B
:103CD0002046FDF7CFFD019B1BBA1A0DC3F30B2342
:103CE000328020462B8001224B21FDF791FD0022DE
:103CF0004B212046FDF78CFD02B070BD10B50A4B7C
:103D00001A78904204460DD0597888420AD00AB1F8
:103D100041B901229C54FDF779FD2046BDE81040D1
:103D2000FFF78CBF10BD00BFD426002010B5C4B271
:103D300009212046FDF784FD40F00100C2B20921AF
:103D40002046BDE81040FDF763BD10B5C4B209219F
:103D50002046FDF775FD092100F0FE022046BDE872
:103D60001040FDF755BD38B5C4B20D4620460A21B6
:103D7000FDF766FD2843C2B20A212046BDE838405F
:103D8000FDF746BD07B50190FDF741FD01981F21E4
:103D9000FFF7E9FF019803B05DF804EBFFF7C6BF3A
:103DA00038B5C4B20D4620460A21FDF749FD20EA88
:103DB0000500C2B20A212046BDE83840FDF728BD03
:103DC00010B50446FFF7C1FF20461F21BDE8104093
:103DD000FFF7E6BF10B5C0B20C460B21FDF730FD72
:103DE000204010BD1F21FFF7F5BF0A46C0B20B21CE
:103DF000FDF70EBD1F21FFF7F8BF38B5C4B20D4661
:103E000020461721FDF71CFD20EA0500C2B217214C
:103E10002046BDE83840FDF7FBBC70B5C4B206468D
:103E200004212046FDF70CFD042100F0FB020546AD
:103E30002046FDF7EDFC3046F021FFF7DEFF05F0F0
:103E4000F80220460421FDF7E3FC49222021204608
:103E5000FDF7DEFC0220FDF723FD20460122212193
:103E6000FDF7D6FC20469A224121FDF7D1FC2046E1
:103E700001224A21FDF7CCFC204601224B21FDF70F
:103E8000C7FC204600224B21FDF7C2FC2046012240
:103E90005621FDF7BDFC204601225821FDF7B8FC54
:103EA000204601224021FDF7B3FC2046FF220B21D2
:103EB000FDF7AEFCBDE870400220FDF7F1BC00004C
:103EC000054BD3F8882042F47002C3F888204FF0E5
:103ED00000629A60704700BF00ED00E008B50B4B30
:103EE0001A6842F400721A601A6842F480621A601A
:103EF0001A6842F480721A60032000F091FA0020E0
:103F0000FDF7F2FFFDF756FD002008BD003C024022
:103F1000034A044B11681B780B441360704700BFC1
:103F2000D826002078000020014B1868704700BF99
:103F3000D826002038B50446FFF7F6FF631C1CBFE7
:103F4000054B1B78054618BFE418FFF7EDFF431B30
:103F5000A342FAD338BD00BF7800002038B504462C
:103F6000002800F09B80056C25B9FDF743FD6564D2
:103F700084F83C50236CDB0600F18E80236C23F424
:103F8000885323F0020343F002032364444B5A682E
:103F900022F440325A605A6861680A435A602368C2
:103FA00021695A6822F480725A605A6842EA0122F2
:103FB0005A605A68A16822F040725A605A680A43EF
:103FC0005A609A68E16822F400629A609A680A432B
:103FD0009A603449A26A8A4252D0996821F070618D
:103FE000996099680A439A609A68E16A22F040529F
:103FF0009A609A680A439A609A6822F002029A606C
:104000009A68217E42EA41029A6094F82020002AB0
:104010003ED05A68616A42F400625A605A6822F4DB
:1040200060425A605A68013942EA41325A60DA6A9B
:10403000E16922F47002DA62DA6A013942EA015275
:10404000DA629A6822F400729A609A6894F83010E2
:1040500042EA41229A609A68616922F480629A6019
:104060009A68002042EA81229A606064236C23F0FF
:10407000030343F001032364002384F83C3038BD7C
:104080009A6822F070629A609A6822F04052B2E711
:104090005A6822F40062C9E70120EDE70120EEE74B
:1040A000002301400100000F13B50023019390F895
:1040B0003C30012B72D00123026880F83C309368B9
:1040C000D9070CD5936813F001031AD1026C42F0A2
:1040D00010020264426C42F0010242645CE09368A8
:1040E000304943F0010393602F4B1B68B3FBF1F39E
:1040F00003EB43030193019B002BE3D0019B013BA6
:10410000F8E7036C294C23F4E06323F0010343F444
:104110008073036453685B0541BF036C23F4405311
:1041200043F480530364036C13F480531CBF436C4B
:1041300023F0060343646FF02201002380F83C3033
:104140001160516841F0806141F0200151601849CF
:10415000486810F01F0019D1A24206D0154B9A42B0
:104160000DD14B6813F01F0F07D1906810F040502D
:1041700016D1936843F08043936002B010BD0E4B9C
:104180009A42FAD14B6813F0100FEDE7A24207D123
:10419000906810F04050ECD01846EEE70220ECE7B3
:1041A0000020EAE740420F00740000200020014098
:1041B0000023014000210140002201400368D86C27
:1041C000704770477047036870B51E685D68B20736
:1041D00004462BD5A80629D5226CD1065EBF226CD9
:1041E00042F4007222649A6812F0405F17D1227E76
:1041F000AAB9DA6A12F4700F02D09A6852050ED486
:104200005A6822F020025A60236C23F480732364DE
:10421000236CD8045EBF236C43F001032364204663
:10422000FDF7BEFA23686FF012021A60710733D5EA
:104230002A0631D5236CDB065EBF236C43F40053A2
:10424000236423689A6812F4401F1ED19A6B12F4FB
:10425000401F02D09A68500517D45A68510514D4EB
:104260009A6812F0405F10D1227E72B95A6822F02B
:1042700080025A60236C23F480532364236CDA0594
:104280005EBF236C43F001032364204600F0C6F8B0
:1042900023686FF00C021A60F30710D568060ED57C
:1042A00023681B68D9070AD5236C43F48033236441
:1042B0002046FFF786FF23686FF001021A60B206FE
:1042C0000ED56B010CD5636C43F002036364236865
:1042D0006FF020051D602046FFF774FF23681D6006
:1042E00070BD0000F7B50023019390F83C30012B1E
:1042F00069D0012380F83C300D6803688E68092D71
:10430000ACB234D904EB4402DF681E3A4FF0070C1C
:104310000CFA02FC27EA0C07DF60DF6806FA02F2FB
:104320003A43DA604968062901EB81022FD8596BBC
:10433000053A1F26964021EA06015963596B04FA93
:1043400002F20A435A63304A93420AD1122D3CD1F9
:104350002E4B5A6822F400025A605A6842F48002D6
:104360005A60002380F83C30184603B0F0BD1F6946
:1043700005EB45024FF0070C0CFA02FC27EA0C078C
:104380001F611F6906FA02F23A431A61CAE70C2953
:104390004FF01F010BD81E6B233A914026EA010112
:1043A0001963196B04FA02F20A431A63CBE7DE6A57
:1043B000413A914026EA0101D962D96A04FA02F22F
:1043C0000A43DA62BFE70220CFE7114B9D4201D0DA
:1043D000112DC6D10D4B5A6822F480025A605A68DA
:1043E00042F400025A600A4B9D42BAD1094B0A4A74
:1043F0001B68B3FBF2F30A2253430193019B002B8A
:10440000AFD0019B013BF8E70020014000230140B1
:10441000120000107400002040420F00704700009E
:104420000749CA6822F4E0620302120403F4E0635D
:10443000120C134343F0BF6343F40033CB60704767
:1044400000ED00E0164B30B5DC68C4F30224C4F183
:104450000705231D042D28BF0425062B4FF0FF332D
:104460008CBF033C002403FA05F521EA0501A340B3
:1044700022EA0302A140002841EA0203ACBF00F196
:104480006040084A4FEA0313B8BF00F00F00DBB2E8
:10449000AABF00F56140135480F8003330BD00BF5F
:1044A00000ED00E014ED00E0002808DB42090123E4
:1044B00000F01F0003FA00F0014B43F822007047A0
:1044C00000E100E010B5044650B1437903F0FF026B
:1044D00013B90271FDF7B0FA01236371002010BD1A
:1044E0000120FCE710B5044630B390F8393003F0F2
:1044F000FF021BB980F83820FDF7B6FA2268616820
:10450000022384F83930136823F440330B431360DB
:10451000536BA16823F007030B435363136CE168EB
:1045200023F47F5323F03F030B4313640020012344
:10453000E06384F8393010BD0120FCE77047704714
:10454000036870B55E681D68F207044614D5E90576
:1045500012D51A6822F480721A60C26B42F001020E
:10456000C26301229A60042380F83930002380F866
:104570003830436903B19847B20616D5AB0414D559
:1045800023681A6822F400521A6020229A60E36BB2
:1045900043F00203E363042384F83930002384F8F2
:1045A000383063690BB120469847300716D5290586
:1045B00014D523681A6822F400621A6008229A60EF
:1045C000E36B43F00403E363042384F839300023EE
:1045D00084F8383063690BB12046984772070BD5D1
:1045E0006B0509D523681A6822F480621A600422D8
:1045F0009A602046FFF7A2FFB00714D5A90512D58F
:1046000023681A6822F400721A6002229A60E36B2F
:10461000E363012384F83930002384F838302369B8
:104620000BB120469847F20613D5EB0411D5236849
:104630001A6822F480521A6010229A60E36BE363D6
:10464000012384F83930002384F838302046FFF7FE
:1046500076FF70BDF0B590F83830012B4FF00203B3
:104660002BD0012280F8393080F8382000EB01137C
:10467000D3E907425D6A184F44EA0242093C012C23
:104680009CBF05F07F431A434FEA0116036888BFB9
:1046900042EA056299B9596A39400A435A62012CC3
:1046A00082699A6103D8426A22F07F429A620123AA
:1046B00080F83930002380F838301846F0BDD969C9
:1046C00039400A43DA618219012C92691A619CBF50
:1046D00025F07F451D62EAE7F0FFFC002DE9F74F6A
:1046E000DFF8C0916D4A00230D6801249C4004EA64
:1046F000050CAC4340F0B9804D6805F003044FEA67
:1047000043080326671E06FA08F6012F6FEA06061D
:1047100034D8876807EA060ECF6807FA08F747EA31
:104720000E078760476827EA0C0EC5F300179F4005
:1047300047EA0E074760C76807EA060E8F6807FA60
:1047400008F747EA0E07022CC76019D14FEAD30ACF
:1047500000EB8A0A03F0070BDAF820704FEA8B0BA4
:104760004FF00F0E0EFA0BFE27EA0E0E0F6907FA36
:104770000BF747EA0E07CAF8207001E0032CDAD1E4
:10478000076804FA08F43E40264315F4403F0660EB
:104790006BD04FF0000ACDF804A0D9F84460404C2B
:1047A00046F48046C9F84460D9F8446006F480466F
:1047B0000196019E23F0030606F1804606F59C361D
:1047C00003F0030ED6F808804FEA8E0E0F2707FA83
:1047D0000EF7A04228EA07074ED004F58064A042F5
:1047E0004CD004F58064A0424AD004F58064A04215
:1047F00048D004F58064A04246D004F58064A0420D
:1048000044D004F58064A04242D004F58064A04204
:1048100040D004F58064A0423ED004F58064A042FC
:104820000CBF09240A2404FA0EF43C43B4609468D3
:104830006FEA0C06EF0254BF34404CEA0404946063
:10484000D468AF0254BF34404CEA0404D4605468C6
:10485000AF0354BF34404CEA040454601468ED03C1
:1048600054BF34404CEA040414600133102B7FF42D
:104870003BAF03B0BDE8F08F5446D4E70124D2E744
:104880000224D0E70324CEE70424CCE70524CAE7BA
:104890000624C8E70724C6E70824C4E7003C014013
:1048A00000000240003802400AB1816170470904EB
:1048B000FBE7436901EA030221EA030141EA0241FD
:1048C0008161704701684B6913F480634FF0000207
:1048D00010D06FF480634B612023026380F83D3079
:1048E00080F83E20036C80F83C2043F0040303640E
:1048F00001207047184670472DE9F84606460F46D6
:1049000091461D464FEA114A3368BAF1010F0CBFB8
:104910005C699C6927EA0404A4B2B4FA84F46409CB
:10492000A14501D0002017E06A1CEED0FFF7FCFA89
:10493000089BC01AA84201D8002DE5D100232022EF
:10494000336386F83D2086F83E30326C86F83C3082
:1049500042F0200232640120BDE8F8862DE9F041E2
:1049600004460F46164698462568686927EA0000FF
:1049700080B2B8B16B695A0516D52B6843F4007341
:104980002B606FF480636B6120220023236384F823
:104990003D2084F83E30226C42F00402226484F808
:1049A0003C300120BDE8F081731CDED0FFF7BCFA7B
:1049B000A0EB0800B04201D8002ED5D10023202260
:1049C000236384F83D2084F83E30226C42F02002BC
:1049D000E4E770B504460D46164621684B6913F0AE
:1049E000400301D0002010E04A69D2060ED56FF0D6
:1049F00010024A612022236384F83D2084F83E306F
:104A0000226C226484F83C30012070BDFFF78CFAE0
:104A1000801BA84201D8002DDFD100232022236370
:104A200084F83D2084F83E30226C42F02002E8E712
:104A300070B504460D46164623685B695B0701D5D1
:104A4000002070BD2046FFF73DFFA8B96A1CF3D0D7
:104A5000FFF76AFA801BA84201D8002DECD1002391
:104A60002022236384F83D2084F83E30226C84F8B1
:104A70003C3042F0200222640120E2E770B5044697
:104A80000D46164623685B691B0601D5002070BDE4
:104A90002046FFF717FFA8B96A1CF3D0FFF744FAC6
:104AA000801BA84201D8002DECD1002320222363D3
:104AB00084F83D2084F83E30226C84F83C3042F08B
:104AC000200222640120E2E72DE9F0431546026846
:104AD00085B0DDE90C789946136843F48073136060
:104AE0000E463B46CDF8008000224FF001110446EF
:104AF000FFF702FF236838B11B68DB0502D54FF4CE
:104B00000073236403200AE006F0FE061E611949C3
:104B100043463A462046FFF721FF18B1012005B071
:104B2000BDE8F083236803905A6903929B6903935D
:104B3000424639462046039BFFF7A0FF40B1236C55
:104B4000042B01BF2268136843F400731360E5E788
:104B5000B9F1010F236802D1EDB21D61DFE72A0A26
:104B60001A61394642462046FFF788FF0028E6D101
:104B70002368F1E7020001002DE9FF479A46036828
:104B800015461A6842F480621A601A68DDE90C78EA
:104B900042F480721A600E463B46CDF80080002237
:104BA0004FF001110446FFF7A7FE236848B11B68C8
:104BB000DB0502D54FF400732364032004B0BDE885
:104BC000F0875FFA86F906F0FE061E612A49434621
:104BD0003A462046FFF7C2FE08B10120EEE72368FF
:104BE00003905A6903929B690393424639462046D3
:104BF000039BFFF743FF40B1236C042B01BF2268E6
:104C0000136843F400731360E7E7BAF1010F2368F8
:104C10001AD1EDB21D61424639462046FFF72EFFFC
:104C20000028E9D12268136843F4807313604FF0C1
:104C300001110246CDF800803B462046FFF75CFE9E
:104C4000226860B11368B3E72A0A1A6139464246FE
:104C50002046FFF713FF0028CED12368D9E749F09B
:104C600001031361044943463A462046FFF776FEA6
:104C7000003818BF0120A1E70200010070B504460A
:104C800008B9012070BD90F83D3003F0FF021BB958
:104C900080F83C20FCF70AFF242384F83D30236889
:104CA0001A6822F001021A601A6842F400421A607F
:104CB0001A6822F400421A6000F074FE3F4B6568E7
:104CC0009D4294BF3E4B3F4B98428CBF0023012333
:104CD000002BD6D12268394E53683B49B0FBF1F125
:104CE00023F03F030B43B542536088BF4FF49676E1
:104CF000136A88BF714323F03F0384BF4FF47A7671
:104D0000B1FBF6F1013119431162D169431E2B4801
:104D100021F44F41854221F0FF0132D86D0040F669
:104D2000FC70B3FBF5F30133034242D0C3F30B0332
:104D30000B43D361D4E907301168034321F0C0016C
:104D40000B4313609168D4E9030321F40341034347
:104D500021F0FF010B439360D4E90530D168034390
:104D600021F0FF010B43D360136843F0010313608C
:104D700000202023206484F83D30206384F83E0026
:104D800080E7A06850B905EB4505B3FBF5F30133A7
:104D9000C3F30B037BB143F40043C9E71920454338
:104DA000B3FBF5F30133C3F30B0323B143F44043E7
:104DB000BEE70423BCE70123BAE700BFA0860100D9
:104DC0007F841E00FF083D0040420F002DE9F7439D
:104DD000044699460C9E0F469046FFF7A5F894F8B6
:104DE0003D30202B054603D0022003B0BDE8F08300
:104DF00000903C49192301222046FFF77DFD002841
:104E0000F2D194F83C30012BEED02068012384F8D5
:104E10003C300368D9075EBF036843F001030360B9
:104E2000036823F400630360212384F83D304023AA
:104E300084F83E30002323640A9B6362BDF82C3063
:104E40006385638D2385284BE362CDE900654B467E
:104E5000424639462046FFF737FE00282AD0012077
:104E6000C3E7FFF70BFE40B1236C042B01BF2268A0
:104E7000136843F400731360F1E7636A27681A4606
:104E800012F8011B39616262628D218D013A92B282
:104E900062857A69481E80B2520720850AD548B1DA
:104EA0005A783A6102336362638D013B02399BB2E7
:104EB00021856385238D2A4631462046002BD0D19B
:104EC000FFF7B6FD0028CFD12268136843F40073C2
:104ED0001360202384F83D3084F83C0084F83E00C1
:104EE00083E700BF020010000000FFFF2DE9F04340
:104EF000044687B09946109F0D469046FFF714F878
:104F000094F83D30202B064604D00225284607B0F1
:104F1000BDE8F08300907649192301222046FFF76F
:104F2000EBFC0028F1D194F83C30012BEDD0206847
:104F3000012384F83C300368DB075EBF036843F05D
:104F400001030360036823F400630360222384F8F1
:104F50003D30402384F83E30002323640E9B63627F
:104F6000BDF83C306385638D2385624BE36229463F
:104F7000CDE900764B4642462046FFF7FDFD05464B
:104F800008B10125C2E7228D2368B2B902905A699F
:104F900002929A690292029A1A6842F400721A60A6
:104FA000DFF85481238D002B2CD1202284F83D2062
:104FB00084F83C3084F83E30A8E7012A0AD11A6808
:104FC00022F480621A6003905A6903929A690392EC
:104FD000039AE1E7022A0ED11A6822F480621A606D
:104FE0001A6842F400621A6004905A6904929B693C
:104FF0000493049BD4E705905A6905929B69059335
:10500000059BCDE7032B56D8012B15D132463946E7
:105010002046FFF7DEFC0028B3D123681A69636AD3
:105020001A70636A01336362238D013B2385638DAC
:10503000013B9BB26385B5E7022B00963B464FF0E0
:1050400000024146204619D1FFF756FC002898D1AE
:1050500023681A6842F400721A601A69636A1A7047
:10506000626A531C6362238D013B2385638D013B80
:105070009BB2638523681B695370D2E7FFF73CFC42
:1050800000287FF47EAF23681A6822F480621A60D9
:105090001A69636A1A70636A009601336362238D2A
:1050A000013B2385638D013B9BB2638502463B46F2
:1050B00041462046C8E7324639462046FFF789FC7C
:1050C00000287FF45EAF23681A69636A1A70626A07
:1050D000531C6362238D013B2385638D013B9BB28F
:1050E00063852368596949077FF55CAFC3E700BF53
:1050F000020010000000FFFF0400010010B590F84E
:105100003D30202BDCB216D1242380F83D300368DB
:105110001A6822F001021A605A6A22F010025A62DA
:105120005A6A114359621A6842F001021A6080F803
:105130003D40002010BD0220FCE730B590F83D3026
:10514000202BDCB216D10268242380F83D3013688E
:1051500023F001031360556A4FF6F0732B400B43A5
:105160009BB25362136843F00103136080F83D4023
:10517000002030BD0220FCE70068D1F800C0D20159
:10518000843283182DE9F043C6685D684C68D1F815
:10519000189005F470455D60C5680CF10107C5F312
:1051A0000B45C6F30B463D44264445EA06455D6083
:1051B000C568CE68C5F30A052E449D6805F47045A0
:1051C0009D60C7688D68C7F30A0701353D4445EA0D
:1051D00006459D601D690E6925F007051D614FF0AC
:1051E000000E1E619D6991F8327091F83180C3F80C
:1051F00018E091F8305045EA096545EA082545EA86
:1052000007459D615D6925F0FF055D614D695D6143
:10521000DD6925F4E06525F00705DD61D1E9075773
:105220003D43DD619D6A4D6AC3F828E09D621EB36F
:10523000012E23D0B51E022D22D9072E0CBF022528
:105240000125DE6A06F0E026DE62A4EB0C048E6A1D
:10525000C96A6C436E43033444EA0644DC621C6B47
:1052600024F4FF6424F007041C631963835843F09B
:1052700001038350BDE8F0830425E2E70325E0E75E
:105280000225DEE738B50446002863D090F8A13047
:1052900003F0FF021BB980F8A020FCF763FC022397
:1052A00084F8A13023689A6922F070429A61D4E9A7
:1052B00001200243E06899690243206902430A43DE
:1052C0009A619A68244960690A409A609A6842EA39
:1052D0000042A06902439A60DA68E0690A40DA6035
:1052E000DA6842EA0042206A0243DA601A69606AB8
:1052F0000A401A611A6942EA0042A06A02431A612E
:105300005A69114059615A69E16A42EA0142216BC6
:105310000A435A61D96A94F8360094F8355001F07E
:105320007F41D962D96A94F834200A4342EA0522BF
:1053300042EA0042DA625A6B42F006025A639A6904
:1053400042F001029A6100200123C4F8A40084F80D
:10535000A13038BD0120FCE700F800F0704770472D
:10536000036870B59E6B5D6B7207044614D56907C0
:1053700012D55A6B22F004025A630422DA63D0F881
:10538000A43043F00103C0F8A430002380F8A1202A
:1053900080F8A030FFF7E2FFB20716D5AB0714D5AF
:1053A00023685A6B22F002025A630222DA63D4F8AD
:1053B000A4301343C4F8A430042384F8A13000239C
:1053C00084F8A0302046FFF7C9FFF00710D5E907A1
:1053D0000ED523685A6B22F001025A630122DA6368
:1053E000002384F8A12084F8A0302046FBF706FFB4
:1053F000320711D52B070FD523685A6B22F008020C
:105400005A630822DA63012384F8A130002384F868
:10541000A0302046FFF7A3FF70BD2DE9F04190F8C2
:10542000A030012B06460F4694464FF002001FD0D5
:105430004FF0010886F8A08086F8A10034240D46BC
:1054400004FB02640FCD38340FC40FCD0FC40FCD51
:105450000FC42B682360304662463946FFF78CFE46
:1054600033680020C3F8248086F8A18086F8A00065
:10547000BDE8F08190F8A030012B4FF0020312D06C
:1054800080F8A13003685A6B22F001025A63074A80
:1054900011645A6B42F001025A63012380F8A13073
:1054A000002380F8A0301846704700BF0068014014
:1054B0002DE9F341044640B30368DD0710D42368A7
:1054C00098075ED423681A0700F1A08023685B0761
:1054D00000F1C080A069002840F0288100202BE066
:1054E0008F4B9A6802F00C02042A07D09A6802F0E7
:1054F0000C02082A0BD15A68510208D5884B1B6848
:105500009A03DCD56368002BD9D1012014E06268CE
:10551000B2F5803F13D11A6842F480321A60FEF768
:1055200003FD7F4E054633689B03C8D4FEF7FCFCA1
:10553000401B6428F7D9032002B0BDE8F081784D04
:10554000B2F5A02F2B6807D143F480232B602B6882
:1055500043F480332B60E2E723F480332B602B6825
:1055600023F480232B60002AD9D1FEF7DDFC064608
:105570002B689F03A3D5FEF7D7FC801B6428F7D9BF
:10558000D9E7674B9A6812F00C0F07D09A6802F0BF
:105590000C02082A11D15B685E020ED4604A1368BF
:1055A0009D0702D5E368012BAFD11368216923F071
:1055B000F80343EAC103136084E7E268594BB2B1D0
:1055C00001221A60FEF7B0FC554D06462B6898077D
:1055D00007D52B68226923F0F80343EAC2032B6046
:1055E00070E7FEF7A1FC801B0228EFD9A3E71A6041
:1055F000FEF79AFC4A4E0546336899077FF562AF7D
:10560000FEF792FC401B0228F6D994E76269454BED
:1056100082B10122C3F8802EFEF786FC404E05467B
:10562000736F9F073FF552AFFEF77EFC401B0228C9
:10563000F6D980E7C3F8802EFEF776FC384E054693
:10564000736F98077FF542AFFEF76EFC401B022890
:10565000F6D970E7324B1A6C12F0805228D10192C1
:105660001A6C42F080521A641B6C03F08053019351
:10567000019B01272C4D2B68D9051BD5A368284D0C
:10568000012B27D12B6F43F001032B67FEF74CFC56
:10569000234E054641F28838336F9B0739D5002FDA
:1056A0003FF418AF1E4A136C23F08053136411E7C4
:1056B0000027DFE72B6843F480732B60FEF734FC90
:1056C00006462B68DA05D9D4FEF72EFC801B02288B
:1056D000F7D930E7052B04D12B6F43F004032B6778
:1056E000D0E72A6F22F001022A672A6F22F0040213
:1056F0002A67002BCAD1FEF717FC41F2883806460C
:105700002B6F9807CBD5FEF70FFC801B4045F7D9D0
:1057100011E7FEF709FC401B4045BDD90BE700BF70
:10572000003802400000474200700040364DAB6830
:1057300003F00C03082B3DD0344B002202281A66DC
:105740002BD1FEF7F1FB06462B6899011FD4D4E953
:1057500007321343626A43EA8213E26A43EA02634E
:10576000A26A5208013A43EA02436B60274B264D76
:1057700001221A66FEF7D8FB04462B689A013FF512
:10578000ADAEFEF7D1FB001B0228F6D9D3E6FEF73B
:10579000CBFB801B0228D7D9CDE6FEF7C5FB04461C
:1057A0002B689B017FF59AAEFEF7BEFB001B02281B
:1057B000F6D9C0E601283FF4BFAE6B68E26903F496
:1057C000800191427FF4A1AE216A03F03F028A4238
:1057D0007FF49BAE616A47F6C0721A40B2EB811F3C
:1057E0007FF493AEA26A520803F44031013AB1EB60
:1057F000024F7FF48AAEE26A03F07063B3EB026F8C
:105800003FF46CAE81E600BF003802400000474222
:10581000134908B58B6803F00C03042B1CD0082B2C
:105820001CD14A684B68496813F4800314BF0D48C3
:105830000D48C1F3881118BF002302F03F02A1FBFD
:105840000001FAF725FD064B5B68C3F30143013302
:105850005B00B0FBF3F008BD0248FCE70248FAE742
:105860000038024000127A000024F4002DE9F041D3
:105870000D46044610B90120BDE8F081444B1A687A
:1058800002F00F028A4228D3226897072DD4D0074E
:1058900041D43F4B1A6802F00F02AA4266D8226830
:1058A00051076CD4130707D53A4A2169936823F44A
:1058B000604343EAC1039360FFF7AAFF354B364AC2
:1058C0009B68C3F30313D35CD840344B1860344B4C
:1058D0001868FCF709FB0020CEE7CAB21A701B68F3
:1058E00003F00F038B42C6D1CEE72A4B12F0040F10
:1058F0001EBF996841F4E0519960160742BF99684C
:1059000041F4604199602349A0688B6823F0F0035B
:1059100003438B60BBE762681E4B012A1CD11B68E6
:1059200013F4003FA7D01B4EB36823F003031343C7
:10593000B360FEF7F9FA41F288380746B368626847
:1059400003F00C03B3EB820FA3D0FEF7EDFAC01BFC
:105950004045F3D903208FE7911E01291B6802D827
:1059600013F0007FDEE713F0020FDBE7EAB21A70F4
:105970001B6803F00F03AB427FF47DAF8FE705494F
:10598000E0688B6823F4E05303438B608AE700BF31
:10599000003C02400038024054FD01087400002021
:1059A0007C000020044B054A9B68C3F38223D35C30
:1059B000034A1068D84070470038024064FD01086F
:1059C000740000200F2303600B4B9A6802F003025F
:1059D00042609A6802F0F00282609A6802F4E05233
:1059E000C2609B68DB0803F4E0530361034B1B6850
:1059F00003F00F030B60704700380240003C024088
:105A0000036813F0430FF7B5044640F08C80236819
:105A100013F00C0F45D08B4B8B4D00221A67FEF70D
:105A200083FA06462B689F0000F1CF8021684E075D
:105A300015D5D4E90403D5F888201B0602F0E0420E
:105A400043EA80131343C5F88830D5F88C30226AB6
:105A500023F4F853013A43EA0223C5F88C300D07CA
:105A600014D5794AA369D2F8881020691B0701F080
:105A7000706143EA80130B43C2F88830D2F88C304F
:105A8000616A23F440330B43C2F88C306D4B6E4E89
:105A900001221A67FEF748FA05463368980040F17C
:105AA0009B8023689B0633D500230193664B674D8B
:105AB0001A6C42F080521A641B6C03F080530193FD
:105AC000019B2B6843F480732B60FEF72DFA06468A
:105AD0002B68D90540F187805B4D2B6F13F4407321
